:100000000C9464000C948C000C948C000C94B90833
:100010000C94B9080C94B9080C948C000C949206BA
:100020000C948C000C948C000C948C000C948C0020
:100030000C948C000C948C000C948C000C948C0010
:100040000C94BC090C948C000C94F10C0C94230DB2
:100050000C948C000C948C000C948C000C948C00F0
:100060000C948C000C948C0000000008000201002D
:100070000003040700000000000000000102040863
:100080001020408001020408102001020408102002
:10009000040404040404040402020202020203032E
:1000A00003030303000000002300260029000000D2
:1000B0000000250028002B0000000000240027007D
:1000C0002A00B806530DF40611241FBECFEFD8E066
:1000D000DEBFCDBF11E0A0E0B1E0EAECFFE202C07C
:1000E00005900D92A43CB107D9F723E0A4ECB1E050
:1000F00001C01D92A03DB207E1F710E0C6ECD0E0D0
:1001000004C02297FE010E949614C23CD107C9F791
:100110000E94970D0C94D8170C9400007F928F9238
:100120009F92AF92BF92CF92DF92EF92FF920F9386
:100130001F93CF93DF93CDB7DEB76E970FB6F894CA
:10014000DEBF0FBECDBF882311F082E001C083E087
:100150002FEF829FC001112464E170E00E943F14E0
:10016000862E0DE812E0712C912CA12CBB24BA94A0
:1001700094EFC92EDD24D394E12CF12CF8013297B1
:10018000B0823196A082F8019082C182D282E3824D
:10019000F4824AE0692DCE0101960E94A9104AE03E
:1001A0006A2DCE0107960E94A9104AE06B2DCE0160
:1001B00043960E94A9106CE171E0CE010D960E9459
:1001C0005B10BE016D5E7F4FCE010D960E946E11D9
:1001D0006EE171E00E948111BE01695F7F4F0E9454
:1001E0006E1162E271E00E948111BE016F5F7F4F6C
:1001F0000E946E11BC01CE0149960E948810CE016A
:100200000D960E94ED0FCE0143960E94ED0FCE0198
:1002100007960E94ED0FCE0101960E94ED0FBE01E0
:10022000675E7F4F8EE293E00E94FF0D711005C064
:10023000B818B81478F0A80C1FC0F1E07F1205C000
:10024000A818A81468F0980C17C09818981478F09B
:10025000B80C12C077247394912CAA24AA9405C0D8
:1002600082E0782E99249A94A12CB12C05C0712C8F
:10027000912CA12CBB24BA94CE0149960E94ED0F7B
:100280000750110922E00130120709F077CF6E966E
:100290000FB6F894DEBF0FBECDBFDF91CF911F9197
:1002A0000F91FF90EF90DF90CF90BF90AF909F9015
:1002B0008F907F90089580E090E021E433E0FC018E
:1002C000EE0FFF1FEB52FE4F3183208301968A30E1
:1002D0009105A9F780E090E028E430E0FC01EE0F02
:1002E000FF1FE051FE4F3183208301968A30910534
:1002F000A9F70895FF920F931F93CF93DF9300D038
:10030000CDB7DEB78A0160E070E00E94BA119A832F
:100310008983F8011182108266E0F62EF80180814F
:10032000918105974CF081E0F8012081318112160E
:1003300013066CF180E02BC0AE014F5F5F4F6AE5A2
:1003400071E089819A810E94ED16BC01009759F3F2
:10035000F80120813181F29EC001F39E900D11249D
:1003600089549D4F0E949110F80120813181F29EA5
:10037000C001F39E900D112489549D4F0E94EC11F1
:10038000F80180819181019691838083C7CF0F907E
:100390000F90DF91CF911F910F91FF900895FF92E1
:1003A0000F931F93CF93DF93CDB7DEB72C970FB684
:1003B000F894DEBF0FBECDBF8C0166E271E0CE01C6
:1003C00007960E945B10BE01695F7F4FC8010E94C3
:1003D000E811892BB1F069E271E0CE0101960E942B
:1003E0005B10BE016F5F7F4FC8010E94E811FF24C0
:1003F000F394892B09F0F12CCE0101960E94ED0FA8
:1004000002C0FF24F394CE0107960E94ED0FFF2057
:10041000A9F0C80106960E9400126093C4016CE224
:1004200071E08EE293E00E94F20D6091C40142E01F
:1004300050E08EE293E00E94D90EA6C061E371E025
:10044000CE0107960E945B10BE01695F7F4FC80115
:100450000E94E811892BB1F063E371E0CE010196AF
:100460000E945B10BE016F5F7F4FC8010E94E811C0
:10047000FF24F394892B09F0F12CCE0101960E9400
:10048000ED0F02C0FF24F394CE0107960E94ED0FFA
:10049000FF2009F44FC065E371E0CE0107960E948A
:1004A0005B10BE01695F7F4FC8010E94E811019790
:1004B000B1F064E571E0CE0101960E945B10BE01CF
:1004C0006F5F7F4FC8010E94E811FF24F3940197EA
:1004D00009F0F12CCE0101960E94ED0F02C0FF241D
:1004E000F394CE0107960E94ED0FF1104DC067E323
:1004F00071E0CE0107960E945B10BE01695F7F4FDD
:10050000C8010E94E811019781F069E371E0CE0112
:1005100001960E945B10BE016F5F7F4FC8010E9471
:10052000E811CE0101960E94ED0FCE0107960E94C0
:10053000ED0F2AC06BE371E0CE0101960E945B10C3
:10054000B801CE0101960E946E1166E471E00E942E
:100550008111B8016A5F7F4F0E946E1166E471E0FD
:100560000E948111B801645F7F4F0E946E1168E4A0
:1005700071E00E948111BC0182E992E00E94FF0DAE
:10058000CE0101960E94ED0F2C960FB6F894DEBFB7
:100590000FBECDBFDF91CF911F910F91FF900895B6
:1005A000209106018091C9019091CA01821B910995
:1005B0009093CA018093C9018091C9019091CA01A9
:1005C00097FD0DC08091C9019091CA018F3F91059F
:1005D00009F044F48091C9019091CA0105C080E0FE
:1005E00090E002C08FEF90E09093CA018093C90120
:1005F0008091C9019091CA016FEF70E0681B790B7F
:10060000809115010E94B50A8091C40182FD68C0E5
:100610002091CC018091C7019091C801821B910962
:100620009093C8018093C7018091C7019091C80140
:1006300097FD0DC08091C7019091C8018F3F910532
:1006400009F044F48091C7019091C80105C080E091
:1006500090E002C08FEF90E09093C8018093C701B3
:100660008091C7019091C8016FEF70E0681B790B12
:10067000809113010E94B50A2091CB018091C501A0
:100680009091C601821B91099093C6018093C50188
:100690008091C5019091C60197FD0DC08091C50163
:1006A0009091C6018F3F910509F044F48091C501F6
:1006B0009091C60105C080E090E002C08FEF90E00D
:1006C0009093C6018093C5018091C5019091C601A8
:1006D0006FEF70E0681B790B809111010C94B50AE3
:1006E00008958F929F92AF92BF92CF92DF92EF9236
:1006F000FF920F931F93CF93DF93CDB7DEB762972F
:100700000FB6F894DEBF0FBECDBF809104020E94E9
:10071000980A8C014091CD015091CE016091CF019A
:100720007091D0014E5F5F4F6F4F7F4F4093CD016F
:100730005093CE016093CF017093D0018090CD0192
:100740009090CE01A090CF01B090D0018091D101C6
:100750009091D201A091D301B091D401881A990A45
:1007600080910D0190910E01FF24F3948815990555
:100770000CF0F12C809107019091080108171907DE
:100780006CF4FF2059F08091090190910A0108173B
:10079000190724F410930A010093090180910701BD
:1007A00090910801801791075CF480910B01909162
:1007B0000C018017910724F410930C0100930B0196
:1007C0002BEF821691040CF4A0C18091C40180FF2C
:1007D00050C06091CD017091CE018091CF01909178
:1007E000D00122E330E040E050E00E945314672B38
:1007F000682B692BF1F54091CD015091CE016091AC
:10080000CF017091D00120E1CE0101960E9402112A
:100810004AE0B801CE010D960E94D61066E571E05F
:10082000CE0107960E945B10BE01635F7F4FCE0131
:1008300007960E946E116AE571E00E948111BE0167
:100840006F5F7F4F0E946E116AE571E00E94811117
:10085000BC018EE293E00E94FF0DCE0107960E943C
:10086000ED0FCE010D960E94ED0FCE0101960E9474
:10087000ED0F8091070190910801801791070CF00E
:1008800044C18091EB01811140C1FF2009F43DC1B9
:1008900081E08093EB0161E0809117010E94760B6B
:1008A0009092100180920F0180910F0190911001A0
:1008B00065E070E00E943F14CB01880F991F860FFE
:1008C000971F90930E0180930D018091CD0190911F
:1008D000CE01A091CF01B091D0018093D10190932E
:1008E000D201A093D301B093D4018091E9019091FA
:1008F000EA016AE070E00E943F149093EA0180935D
:10090000E901E091E901F091EA0180910F019091F4
:100910001001EE0FFF1FEB52FE4F918380838091F9
:10092000E9019091EA0101969093EA018093E9012F
:10093000A12CB12C80E090E0F501EE0FFF1FEB52EF
:10094000FE4F20813181820F931F2FEFA21AB20A2E
:100950002AE0A216B10481F7B5010E942B149B0175
:1009600040E050E060E67AEE80E090E00E9475148E
:1009700069017A018091C40181FFFBC08091EE0181
:100980009091EF01B5010E943F149093EF01809385
:10099000EE01E091EE01F091EF01EE0FFF1FE0514B
:1009A000FE4FD182C0828091EE019091EF010196BD
:1009B0009093EF018093EE0160E070E080E090E0C2
:1009C000FB01EE0FFF1FE051FE4F20813181820FAE
:1009D000931F6F5F7F4F6A30710591F70E943F143C
:1009E0007093ED016093EC014091CD015091CE01E7
:1009F0006091CF017091D00120E1CE0101960E945B
:100A000002116091EC017091ED014AE0CE010D966A
:100A10000E94D61069E571E0CE0107960E945B1036
:100A2000BE01635F7F4FCE0107960E946E116AE59B
:100A300071E00E948111BE016F5F7F4F0E946E11B5
:100A40006AE571E00E948111BC018EE293E00E9490
:100A5000FF0DCE0107960E94ED0FCE010D960E946C
:100A6000ED0FCE0101960E94ED0F2091EC01309127
:100A7000ED01C901889797FD039695958795959502
:100A800087958431910514F083E190E097FF02C0CF
:100A900080E090E027E0289FF001299FF00D1124CD
:100AA000EA5FFD4F808190E09093CA018093C90175
:100AB0008091C9019091CA012AE030E0B9010E94F9
:100AC0003F14609306018091C40182FD1EC08181A4
:100AD00090E09093C8018093C7018091C7019091E5
:100AE000C801B9010E943F146093CC01828190E05B
:100AF0009093C6018093C5018091C5019091C60174
:100B0000B9010E943F146093CB018091070190913D
:100B100008010817190724F48091EB0181112EC0F8
:100B200085EC881689E098060CF458C01092CA012A
:100B30001092C90180E092E0909308018093070130
:100B400090930C0180930B0190930A01809309010B
:100B50008091CD019091CE01A091CF01B091D001B3
:100B60008093D1019093D201A093D301B093D4018B
:100B700035C03093ED012093EC0136CF60E08091D9
:100B800017010E94760B1092EB0180910B0190915E
:100B90000C014091090150910A0120910901309105
:100BA0000A01841B950B97FD019695958795820FF9
:100BB000931F909308018093070180910701909102
:100BC000080190930C0180930B0180910701909193
:100BD000080190930A0180930901A2CF62960FB693
:100BE000F894DEBF0FBECDBFDF91CF911F910F9163
:100BF000FF90EF90DF90CF90BF90AF909F908F903D
:100C00000895CF92DF92EF92FF921F93CF93DF93DD
:100C1000BC01C2E0C093B00086E08093B100882799
:100C200077FD8095982F0E94101320E030E04AE76E
:100C300054E40E9475129B01AC0160E070E080E812
:100C40009FE30E9475126B017C019B01AC0160E087
:100C500074E284E797E40E9475120E94DD12D62F99
:100C6000172F8FEF8D0F8093B3006CE571E08EE24C
:100C700093E00E94F20D22E030E040E054E264E7AD
:100C800077E48EE293E00E94DB0F6FE671E08EE284
:100C900093E00E94F20D22E030E0B701A6018EE25F
:100CA00093E00E94DB0F62E871E08EE293E00E9425
:100CB000F20D4AE050E06D2F712F8EE293E00E941A
:100CC000B40EC09370007894DF91CF911F91FF9084
:100CD000EF90DF90CF90089561E0809117010E941E
:100CE0003D0B61E0809115010E943D0B61E0809118
:100CF00013010E943D0B61E0809111010E943D0BA8
:100D000026E040E052EC61E070E08EE293E00E9469
:100D10008F0C82E090E00E9401060E945B0181E05E
:100D20000C948E001F920F920FB60F9211242F93E6
:100D30003F934F935F936F937F938F939F93AF9363
:100D4000BF93EF93FF93F8940E9471037894FF91FF
:100D5000EF91BF91AF919F918F917F916F915F9133
:100D60004F913F912F910F900FBE0F901F901895AC
:100D700065EB71E08BED92E00E945B1065EB71E03A
:100D800085ED92E00E945B1065E371E087EB92E0F5
:100D90000E945B106EE871E08DEB92E00E945B10A8
:100DA00061E971E083EC92E00E945B1061E971E01F
:100DB00089EC92E00E945B1061E971E08FEC92E0B7
:100DC0000E945B1020E04091190160911A0182E9B4
:100DD00092E00E948C09809106018093CC01809161
:100DE00006018093CB010895CF93DF9382E992E0CF
:100DF0000E943309C5EDD2E02697CE010E94ED0F87
:100E000082E0C73BD807C1F785ED92E00E94ED0F65
:100E10008BED92E0DF91CF910C94ED0FCF93DF93A8
:100E2000EC0182E992E00E947C08892BD1F082E9F2
:100E300092E00E94EF078D3039F08A3029F02C8142
:100E40003D812B30310548F065EB71E0CE010E9409
:100E50009B1191E0882331F004C0682FCE010E94DD
:100E60005B1190E0892FDF91CF910895CF93DF93AD
:100E7000EC018EE293E00E94AC0B892BD1F08EE264
:100E800093E00E94C50B8D3039F08A3029F02C8117
:100E90003D812B30310548F065EB71E0CE010E94B9
:100EA0009B1191E0882331F004C0682FCE010E948D
:100EB0005B1190E0892FDF91CF9108951F93CF931D
:100EC000DF93CDB7DEB728970FB6F894DEBF0FBE1D
:100ED000CDBF8BED92E00E940E07882371F00E9437
:100EE000060A6093B1027093B2028093B3029093AA
:100EF000B40281E08093B60213C085ED92E00E94B7
:100F00003607882369F00E94060A6093B102709345
:100F1000B2028093B3029093B40281E08093B50251
:100F20008091B602882319F16BED72E0CE01019633
:100F30000E948810AE01495F5F4F67EB72E0CE01FF
:100F400001960E947A01182FCE0101960E94ED0FA2
:100F5000112321F087EB92E00E94CF0165EB71E055
:100F60008BED92E00E9491101092B60226C0809103
:100F7000B502882311F165ED72E0CE0101960E9461
:100F80008810AE01495F5F4F67EB72E0CE010196BA
:100F90000E947A01182FCE0101960E94ED0F1123B5
:100FA00021F087EB92E00E94CF0165EB71E085EDC7
:100FB00092E00E9491101092B5020E94D00264E16A
:100FC00070E080E090E00E94350A28960FB6F89411
:100FD000DEBF0FBECDBFDF91CF911F91089520914D
:100FE00023033091240328173907B9F49091E102C3
:100FF0008091E202981789F0E091E102F0E0ED5172
:10100000FD4F80812091E10230E02F5F3F4F2F7331
:1010100033272093E10290E008958FEF9FEF08952A
:101020001F93CF93DF93DC015C968D919C915D972C
:10103000009749F481E090E013969C938E93129769
:1010400080E090E03BC05196ED91FC915297509614
:101050002C915097322F30951FB75E964C915E972A
:1010600041FB772770F941FD6095F8944081772323
:1010700011F0422B01C043234083EC012197F1F78B
:1010800048E0508160FF02C0522B01C053235083BF
:10109000EC012197F1F76695415099F7808177230C
:1010A00011F0832301C0822B80831FBF5C968D913A
:1010B0009C915D970197F1F781E090E0DF91CF91EE
:1010C0001F91089520912303309124032817390795
:1010D00081F49091E1028091E202981751F0E09141
:1010E000E102F0E0ED51FD4F8081992787FD909559
:1010F00008958FEF9FEF08952091230330912403EB
:101100002817390771F48091E2022091E10290E002
:10111000805C9F4F821B910960E470E00E943F1445
:10112000089580E090E008952091230330912403F6
:101130002817390739F48FB7F8941092E202109209
:10114000E1028FBF0895E0912303F0912403E81793
:10115000F90769F4A389B4899C91858980958923CD
:101160008C93109224031092230381E0089580E071
:1011700008951F920F920FB60F9211242F933F9351
:101180004F935F936F937F938F939F93AF93BF938F
:10119000EF93FF93E0912303F0912403309709F438
:1011A00051C0868DA685B785958581FF04C08C9139
:1011B000892329F447C08C91892309F043C0A3896E
:1011C000B4899C918589809589238C938689978998
:1011D0000197F1F7208D318DA685B785758558E08B
:1011E00040E0C9010197F1F7842F90E0959587952C
:1011F000482F6C91672309F04068515091F7868D14
:1012000081FD40958091E20290E001968F739927CD
:101210002091E102281749F0A091E202B0E0AD511F
:10122000BD4F4C938093E20203C0868D8160868F10
:10123000828D938D0197F1F7A389B4898C9195895B
:10124000892B8C93FF91EF91BF91AF919F918F91DB
:101250007F916F915F914F913F912F910F900FBEB2
:101260000F901F90189527E931E0FC01318320830E
:101270000C94A3081F93CF93DF93EC01162F6E8D70
:101280006695617081E06827812F0E94760B61E08E
:10129000812F0E943D0B812F90E0FC01E458FF4F0D
:1012A000E491E88BFC01E057FF4FE491F0E0EE0F92
:1012B000FF1FE255FF4F859194919A8B898BDF91A7
:1012C000CF911F9108951F93CF93DF93EC01162FB9
:1012D00060E0812F0E943D0B8E8D81FD04C061E096
:1012E000812F0E94760B1C87812F90E0FC01E4582F
:1012F000FF4FE491ED87FC01E057FF4FE491F0E0F0
:10130000EE0FFF1FEC55FF4F859194919F878E87BD
:10131000DF91CF911F910895FF920F931F93CF9369
:10132000DF93EC01F62E522F1B821A8208EE13E097
:1013300020E030E00C831D832E833F8387E991E01A
:10134000998388831F8A1E8A198E188E1B8E1A8E87
:101350001D8E1C8E8E8D8E7F50FB81F98E8F642F9B
:10136000CE010E943A096F2DCE01DF91CF911F91DE
:101370000F91FF900C9463091F920F920FB60F927A
:1013800011242F933F938F939F93AF93BF9380919B
:10139000260390912703A0912803B091290330914F
:1013A000250323E0230F2D3720F40196A11DB11D45
:1013B00005C026E8230F0296A11DB11D2093250329
:1013C0008093260390932703A0932803B0932903C7
:1013D00080912A0390912B03A0912C03B0912D03AF
:1013E0000196A11DB11D80932A0390932B03A09316
:1013F0002C03B0932D03BF91AF919F918F913F919B
:101400002F910F900FBE0F901F9018952FB7F89443
:1014100060912603709127038091280390912903FE
:101420002FBF08953FB7F89480912A0390912B0322
:10143000A0912C03B0912D0326B5A89B05C02F3F8A
:1014400019F00196A11DB11D3FBF6627782F892F86
:101450009A2F620F711D811D911D42E0660F771F4B
:10146000881F991F4A95D1F70895CF92DF92EF9286
:10147000FF92CF93DF936B017C010E94120AEB0174
:10148000C114D104E104F10489F00E940B120E94FE
:10149000120A6C1B7D0B683E734090F381E0C81A02
:1014A000D108E108F108C851DC4FEACFDF91CF91B4
:1014B000FF90EF90DF90CF900895789484B582608C
:1014C00084BD84B5816084BD85B5826085BD85B5E8
:1014D000816085BDEEE6F0E0808181608083E1E897
:1014E000F0E01082808182608083808181608083CF
:1014F000E0E8F0E0808181608083E1EBF0E08081D2
:1015000084608083E0EBF0E0808181608083EAE7A3
:10151000F0E080818460808380818260808380812C
:10152000816080838081806880831092C1000895EB
:101530008E3008F08E50877020911B0190E4299F17
:1015400090011124822B80937C0080917A0080642A
:1015500080937A0080917A0086FDFCCF809178009C
:101560002091790090E0922B08951F93CF93DF9301
:10157000182FEB0161E00E943D0B209711F460E011
:1015800004C0CF3FD10539F461E0812FDF91CF91C5
:101590001F910C94760BE12FF0E0E859FF4FE49196
:1015A000E330F9F048F4E130B9F0E230A1F584B568
:1015B000806284BDC8BD34C0E730E9F0E83019F17D
:1015C000E43049F580918000806280938000D09360
:1015D0008B00C0938A0024C084B5806884BDC7BDD9
:1015E0001FC080918000806880938000D093890024
:1015F000C093880015C08091B00080688093B000CF
:10160000C093B3000DC08091B00080628093B000A1
:10161000C093B40005C0C038D1050CF0B5CFAFCF32
:10162000DF91CF911F910895833081F028F48130AC
:1016300099F08230A1F008958730A9F08830B9F090
:101640008430D1F4809180008F7D03C08091800030
:101650008F7780938000089584B58F7702C084B51A
:101660008F7D84BD08958091B0008F7703C08091F5
:10167000B0008F7D8093B0000895CF93DF9390E00A
:10168000FC01E458FF4F2491FC01E057FF4F849187
:10169000882349F190E0880F991FFC01E854FF4F1F
:1016A000A591B49182559F4FFC01C591D4919FB7EC
:1016B000611108C0F8948C91209582238C938881C5
:1016C00082230AC0623051F4F8948C91322F309505
:1016D00083238C938881822B888304C0F8948C9117
:1016E000822B8C939FBFDF91CF9108950F931F930F
:1016F000CF93DF931F92CDB7DEB7282F30E0F901EB
:10170000E859FF4F8491F901E458FF4F1491F90112
:10171000E057FF4F04910023C9F0882321F069832B
:101720000E94140B6981E02FF0E0EE0FFF1FE255DD
:10173000FF4FA591B4919FB7F8948C91611103C0AC
:101740001095812301C0812B8C939FBF0F90DF9157
:10175000CF911F910F910895FC01818D228D90E012
:10176000805C9F4F821B91098F7399270895FC011C
:10177000918D828D981731F0828DE80FF11D858D46
:1017800090E008958FEF9FEF0895FC01918D828D79
:10179000981761F0828DDF01A80FB11D5D968C91C5
:1017A000928D9F5F9F73928F90E008958FEF9FEFD0
:1017B000089589E49DE0892B49F080E090E0892B31
:1017C00029F00E94490D81110C9400000895FC013C
:1017D000848DDF01A80FB11DA35ABF4F2C91848DBA
:1017E00090E001968F739927848FA689B7892C93EF
:1017F000A089B1898C9180648C93938D848D98138A
:1018000006C00288F389E02D80818F7D8083089552
:10181000CF93DF93EC01888D8823C9F0EA89FB8997
:10182000808185FD05C0A889B9898C9186FD0FC08E
:101830000FB607FCF5CF808185FFF2CFA889B98963
:101840008C9185FFEDCFCE010E94E70BE7CFDF91B2
:10185000CF910895CF92DF92FF920F931F93CF9372
:10186000DF931F92CDB7DEB76C0181E0D6015896A9
:101870008C9358975B969C915B975C968C915C9748
:10188000981307C05096ED91FC915197808185FD8A
:101890002EC0F601038D10E00F5F1F4F0F7311274D
:1018A000F02EF601848DF81211C00FB607FCF9CFA7
:1018B000D6015096ED91FC915197808185FFF1CF33
:1018C000C60169830E94E70B6981EBCF838DE80F26
:1018D000F11DE35AFF4F6083D6015B960C935B9733
:1018E0005296ED91FC915397808180620CC0D60195
:1018F0005696ED91FC91579760835096ED91FC912F
:10190000519780818064808381E090E00F90DF9127
:10191000CF911F910F91FF90DF90CF900895BF92CC
:10192000CF92DF92EF92FF92CF93DF93EC016A01A7
:101930007B01B22EE889F98982E08083411581EE2E
:10194000580761057105A1F060E079E08DE390E052
:10195000A70196010E9453142150310941095109F0
:101960005695479537952795211580E1380798F0CA
:10197000E889F989108260E874E88EE190E0A701B7
:1019800096010E945314215031094109510956957D
:10199000479537952795EC85FD853083EE85FF8546
:1019A0002083188EEC89FD89B082EA89FB898081C9
:1019B00080618083EA89FB89808188608083EA89ED
:1019C000FB89808180688083EA89FB8980818F7DA3
:1019D0008083DF91CF91FF90EF90DF90CF90BF9009
:1019E00008951F920F920FB60F9211242F938F9389
:1019F0009F93EF93FF93E0913E03F0913F0380812B
:101A0000E0914403F091450382FD12C090818091E2
:101A100047038F5F8F7320914803821751F0E09145
:101A20004703F0E0E25DFC4F958F8093470301C0D0
:101A30008081FF91EF919F918F912F910F900FBE19
:101A40000F901F9018951F920F920FB60F921124AE
:101A50002F933F934F935F936F937F938F939F93B6
:101A6000AF93BF93EF93FF938EE293E00E94E70B57
:101A7000FF91EF91BF91AF919F918F917F916F9166
:101A80005F914F913F912F910F900FBE0F901F903C
:101A900018958EE293E00E94AC0B21E0892B09F4AB
:101AA00020E0822F0895109231031092300388EEC7
:101AB00093E0A0E0B0E08093320390933303A093CF
:101AC0003403B093350387EA91E090932F0380931A
:101AD0002E0385EC90E090933B0380933A0384ECD3
:101AE00090E090933D0380933C0380EC90E09093D2
:101AF0003F0380933E0381EC90E0909341038093F9
:101B0000400382EC90E0909343038093420386EC81
:101B100090E0909345038093440310924703109202
:101B200048031092490310924A03089508950E94B1
:101B30005D0A0E94960D0E946C06C9EDDBE00E94D2
:101B40005E072097E1F30E94D90BF9CFCF92DF9285
:101B5000EF92FF920F931F93CF93DF936C017A0163
:101B6000EB01E60EF71E00E010E0CE15DF0561F098
:101B70006991D601ED91FC910190F081E02DC601B3
:101B80000995080F191FF1CFC801DF91CF911F915F
:101B90000F91FF90EF90DF90CF9008956115710540
:101BA00081F0DB010D900020E9F7AD0141505109B2
:101BB000461B570BDC01ED91FC910280F381E02D77
:101BC000099480E090E00895DC01ED91FC91DB0147
:101BD00014964D915C9115976D917C910280F381E3
:101BE000E02D09940C94CE0DDC01ED91FC91019057
:101BF000F081E02D099463EB71E00C94CE0D0F930E
:101C00001F93CF93DF93EC010E94E40D8C01CE0172
:101C10000E94FB0D800F911FDF91CF911F910F91BB
:101C200008958F929F92AF92BF92CF92DF92EF92E0
:101C3000FF920F931F93CF93DF93CDB7DEB7A1979A
:101C40000FB6F894DEBF0FBECDBF7C01C42EE52FCA
:101C5000CB01D22E19A221E02D1510F02AE0D22EB0
:101C60008E010F5D1F4F8D2C912CA12CB12C6C2D52
:101C70007E2FA50194010E9453148C2DD29E8019B1
:101C80001124015011098A3014F4805D01C0895C6F
:101C9000F8018083211531054105510521F0C22E3F
:101CA000E32FCA01E4CFB801C7010E94CE0DA1966F
:101CB0000FB6F894DEBF0FBECDBFDF91CF911F915D
:101CC0000F91FF90EF90DF90CF90BF90AF909F90DB
:101CD0008F900895CF92DF92EF92FF920F931F9310
:101CE000CF93DF93EC016A017B012115310579F473
:101CF000E881F9810190F081E02D642FDF91CF918F
:101D00001F910F91FF90EF90DF90CF9009942A30B0
:101D10003105E9F477FF1AC06DE20E94F40D8C01E1
:101D200044275527BA014C195D096E097F092AE03D
:101D3000CE010E94110E800F911FDF91CF911F9154
:101D40000F91FF90EF90DF90CF9008952AE0B701B8
:101D5000A601CE01DF91CF911F910F91FF90EF90DF
:101D6000DF90CF900C94110E0F931F93CF93DF93BE
:101D7000EC019A01AB01662757FD6095762F0E9412
:101D80006A0E8C01CE010E94FB0D800F911FDF9126
:101D9000CF911F910F9108952115310541F4DC0178
:101DA000ED91FC910190F081E02D642F09940C9449
:101DB000110E0F931F93CF93DF93EC019A01462FDF
:101DC00050E060E070E00E94CC0E8C01CE010E94D9
:101DD000FB0D800F911FDF91CF911F910F910895FF
:101DE0004F925F926F927F928F929F92AF92BF922B
:101DF000CF92DF92EF92FF920F931F93CF93DF93D7
:101E0000EC016A017B01B22E9A01AB01C701B60158
:101E10000E942714882319F066EB71E027C0260181
:101E20003701E89477F82FEF3FEF4FE75FE7C30103
:101E3000B2010E94271481110DC02FEF3FEF4FE731
:101E40005FE7C301B2010E94711218161CF46AEB1D
:101E500071E00CC02FEF3FEF4FE75FE4C701B60121
:101E60000E94C0131816ACF46EEB71E0CE01DF9146
:101E7000CF911F910F91FF90EF90DF90CF90BF9087
:101E8000AF909F908F907F906F905F904F900C9449
:101E9000CE0D2FEF3FEF4FE75FECC701B6010E9479
:101EA000711287FDE1CF20E030E0A901C701B60142
:101EB0000E94711287FF0AC06DE2CE010E94F40DEC
:101EC0008C01F7FAF094F7F8F09402C000E010E00B
:101ED000A12C60E070E080E09FE3AB1441F020E0D3
:101EE00030E040E251E40E947512A394F6CF9B01CA
:101EF000AC01C701B6010E940D126B017C010E946A
:101F0000E2122B013C010E940E139B01AC01C701A0
:101F1000B6010E940C126B017C012AE0B301A20100
:101F2000CE010E94110E080F191FBB2039F062EC80
:101F300071E0CE010E94CE0D080F191F7B2C772077
:101F400041F120E030E040E251E4C701B6010E94D7
:101F5000C4136B017C010E94DD124B01AA2497FC83
:101F6000A094BA2C2AE030E0B501A401CE010E9471
:101F70006A0E080F191FC501B4010E9410139B01BE
:101F8000AC01C701B6010E940C126B017C017A946E
:101F9000D6CFC801DF91CF911F910F91FF90EF90A5
:101FA000DF90CF90BF90AF909F908F907F906F9079
:101FB0005F904F9008950F931F93CF93DF93EC01A1
:101FC0000E94F00E8C01CE010E94FB0D800F911F2C
:101FD000DF91CF911F910F910895FC018081918134
:101FE0000C943215CF93DF93EC018881998100978F
:101FF00011F00E943215198218821D821C821B82E8
:102000001A82DF91CF9108950F931F93CF93DF939F
:10201000EC018B016F5F7F4F888199810E94C11510
:10202000009731F0998388831B830A8381E001C084
:1020300080E0DF91CF911F910F910895CF93DF93AF
:10204000EC0188819981892B29F08A819B818617EF
:10205000970760F4CE010E940410882341F08C8120
:102060009D81892B19F4E881F981108281E0DF914B
:10207000CF910895EF92FF920F931F93CF93DF9329
:10208000EC017B018A01BA010E941E10811104C07B
:10209000CE010E94F20F07C01D830C83B701888117
:1020A00099810E94CC16CE01DF91CF911F910F91A3
:1020B000FF90EF900895FC0111821082138212822A
:1020C000158214826115710559F0FB010190002001
:1020D000E9F7AF0141505109461B570B0C943A10D8
:1020E0000895CF93DF93EC01FB018617970761F00A
:1020F000608171816115710529F0448155810E94CB
:102100003A1002C00E94F20FCE01DF91CF910895E4
:10211000FC011182108213821282158214820C94A7
:102120007110CF93DF93EC016115710561F0FB0134
:1021300001900020E9F7AF0141505109461B570BB0
:102140000E943A1002C00E94F20FCE01DF91CF919F
:1021500008950F931F93CF93DF93CDB7DEB72997E1
:102160000FB6F894DEBF0FBECDBF8C01862FF801ED
:1021700011821082138212821582148250E0BE01F5
:102180006F5F7F4F90E00E946C17BE016F5F7F4FC3
:10219000C8010E94911029960FB6F894DEBF0FBEB9
:1021A000CDBFDF91CF911F910F9108950F931F9392
:1021B000CF93DF93CDB7DEB762970FB6F894DEBF4B
:1021C0000FBECDBF8C01CB01F801118210821382AA
:1021D00012821582148250E0BE016F5F7F4F0E9411
:1021E0001417BE016F5F7F4FC8010E949110629665
:1021F0000FB6F894DEBF0FBECDBFDF91CF911F9118
:102200000F9108950F931F93CF93DF93CDB7DEB750
:10221000A1970FB6F894DEBF0FBECDBF8C01CB01E6
:10222000BA01F8011182108213821282158214827F
:1022300030E0AE014F5F5F4F0E943F17BE016F5FFE
:102240007F4FC8010E949110A1960FB6F894DEBF8F
:102250000FBECDBFDF91CF911F910F910895EF92E7
:10226000FF920F931F93CF93DF93EC017B010C81BF
:102270001D816115710511F480E016C041155105ED
:1022800091F0040F151FB8010E941E108823A1F3BE
:10229000288139818C819D81B701820F931F0E9413
:1022A000CC161D830C8381E0DF91CF911F910F919C
:1022B000FF90EF900895CF93DF9300D0CDB7DEB7B6
:1022C00069831A8241E050E0BE016F5F7F4F0E9438
:1022D0002F110F900F90DF91CF910895CF93DF933F
:1022E000EC01FB0144815581608171810E942F11B5
:1022F000811103C0CE010E94F20FCE01DF91CF9178
:102300000895CF93DF93EC016115710569F0FB012E
:1023100001900020E9F7AF0141505109461B570BCE
:102320000E942F11811103C0CE010E94F20FCE0135
:10233000DF91CF910895FC0124813581232B31F465
:1023400021E061157105A1F0FB0108C0FC0180814D
:1023500091816115710531F421E0FC0180818823B0
:1023600039F005C00E94C31621E0892B09F020E056
:10237000822F0895FC01848195816817790720F4E4
:1023800080819181009729F41092CB038BEC93E02C
:102390000895860F971F0895CF93DF93FC018481E2
:1023A00095814817590778F4C081D181FB0160817C
:1023B0007181CE01840F951F0E94D316009719F0EA
:1023C0008C1B9D0B02C08FEF9FEFDF91CF91089583
:1023D00040E050E00C94CC11CF93DF93FC01C0811E
:1023E000D181209751F08881882339F0992787FD82
:1023F00090950E94B2168993F6CFDF91CF91089500
:10240000FC0180819181009711F00C948B1660E0A3
:1024100070E0CB01089508955058BB27AA270ED02D
:1024200075C166D130F06BD120F031F49F3F11F4CB
:102430001EF45BC10EF4E095E7FB51C1E92F77D1A3
:1024400080F3BA17620773078407950718F071F4D1
:102450009EF58FC10EF4E0950B2EBA2FA02D0B0127
:10246000B90190010C01CA01A0011124FF27591BD9
:1024700099F0593F50F4503E68F11A16F040A22FDF
:10248000232F342F4427585FF3CF46953795279550
:10249000A795F0405395C9F77EF41F16BA0B620B4F
:1024A000730B840BBAF09150A1F0FF0FBB1F661F96
:1024B000771F881FC2F70EC0BA0F621F731F841FD9
:1024C00048F4879577956795B795F7959E3F08F0FF
:1024D000B3CF9395880F08F09927EE0F97958795BE
:1024E0000895D9D008F481E008950CD00FC107D128
:1024F00040F0FED030F021F45F3F19F0F0C05111F0
:1025000039C1F3C014D198F39923C9F35523B1F31A
:10251000951B550BBB27AA2762177307840738F052
:102520009F5F5F4F220F331F441FAA1FA9F333D0B1
:102530000E2E3AF0E0E830D091505040E695001C65
:10254000CAF729D0FE2F27D0660F771F881FBB1F21
:10255000261737074807AB07B0E809F0BB0B802DFB
:10256000BF01FF2793585F4F2AF09E3F510568F047
:10257000B6C000C15F3FECF3983EDCF386957795DB
:102580006795B795F7959F5FC9F7880F911D969549
:10259000879597F90895E1E0660F771F881FBB1FA5
:1025A000621773078407BA0720F0621B730B840B52
:1025B000BA0BEE1F88F7E095089504D06894B11126
:1025C000D9C00895BCD088F09F5790F0B92F9927B3
:1025D000B751A0F0D1F0660F771F881F991F1AF02E
:1025E000BA95C9F712C0B13081F0C3D0B1E00895F7
:1025F000C0C0672F782F8827B85F39F0B93FCCF378
:10260000869577956795B395D9F73EF49095809523
:10261000709561957F4F8F4F9F4F0895E89409C043
:1026200097FB3EF490958095709561957F4F8F4F05
:102630009F4F9923A9F0F92F96E9BB279395F6951B
:10264000879577956795B795F111F8CFFAF4BB0F99
:1026500011F460FF1BC06F5F7F4F8F4F9F4F16C0FD
:10266000882311F096E911C0772321F09EE8872F87
:10267000762F05C0662371F096E8862F70E060E043
:102680002AF09A95660F771F881FDAF7880F9695BC
:10269000879597F90895990F0008550FAA0BE0E860
:1026A000FEEF16161706E807F907C0F01216130614
:1026B000E407F50798F0621B730B840B950B39F454
:1026C0000A2661F0232B242B252B21F408950A26BA
:1026D00009F4A140A6958FEF811D811D089597F9FA
:1026E0009F6780E870E060E008959FEF80EC0895B8
:1026F00000240A94161617061806090608950024E1
:102700000A9412161306140605060895092E03945A
:10271000000C11F4882352F0BB0F40F4BF2B11F4CE
:1027200060FF04C06F5F7F4F8F4F9F4F089557FD2D
:102730009058440F551F59F05F3F71F04795880F2F
:1027400097FB991F61F09F3F79F0879508951216C6
:1027500013061406551FF2CF4695F1DF08C0161672
:1027600017061806991FF1CF869571056105089423
:102770000895E894BB2766277727CB0197F908953A
:102780008ADF08F48FEF08950BD0C0CFB1DF28F0B7
:10279000B6DF18F0952309F0A2CFA7CF1124EACF16
:1027A000C6DFA0F3959FD1F3950F50E0551F629FB0
:1027B000F001729FBB27F00DB11D639FAA27F00D9A
:1027C000B11DAA1F649F6627B00DA11D661F829FC1
:1027D0002227B00DA11D621F739FB00DA11D621FA6
:1027E000839FA00D611D221F749F3327A00D611DC3
:1027F000231F849F600D211D822F762F6A2F1124A5
:102800009F5750408AF0E1F088234AF0EE0FFF1FF7
:10281000BB1F661F771F881F91505040A9F79E3F2E
:10282000510570F05CCFA6CF5F3FECF3983EDCF330
:10283000869577956795B795F795E7959F5FC1F76B
:10284000FE2B880F911D9695879597F9089523DFA4
:10285000880B990B0895AA1BBB1B51E107C0AA1F47
:10286000BB1FA617B70710F0A61BB70B881F991F31
:102870005A95A9F780959095BC01CD01089597FBD5
:10288000072E16F4009407D077FD09D00E942B1470
:1028900007FC05D03EF4909581959F4F0895709563
:1028A00061957F4F0895A1E21A2EAA1BBB1BFD0163
:1028B0000DC0AA1FBB1FEE1FFF1FA217B307E4071F
:1028C000F50720F0A21BB30BE40BF50B661F771F77
:1028D000881F991F1A9469F7609570958095909557
:1028E0009B01AC01BD01CF010895052E97FB1EF49D
:1028F00000940E948C1457FD07D00E94531407FCCB
:1029000003D04EF40C948C1450954095309521953D
:102910003F4F4F4F5F4F089590958095709561950B
:102920007F4F8F4F9F4F0895EE0FFF1F0590F4913B
:10293000E02D0994CF93DF938230910510F482E06B
:1029400090E0E091CE03F091CF0320E030E0A0E0F2
:10295000B0E0309739F14081518148175907B8F0FC
:102960004817590771F482819381109729F01396C3
:102970009C938E9312972CC09093CF038093CE0399
:1029800027C02115310531F04217530718F0A9016E
:10299000DB0101C0EF019A01BD01DF010280F3817B
:1029A000E02DD7CF21153105F9F0281B390B243044
:1029B000310580F48A819B816115710521F0FB014D
:1029C0009383828304C09093CF038093CE03FE0150
:1029D000329644C0FE01E20FF31F8193919322507F
:1029E0003109398328833AC02091CC033091CD033B
:1029F000232B41F420910201309103013093CD0348
:102A00002093CC0320910001309101012115310563
:102A100041F42DB73EB74091040150910501241BAC
:102A2000350BE091CC03F091CD03E217F307A0F44E
:102A30002E1B3F0B2817390778F0AC014E5F5F4F14
:102A40002417350748F04E0F5F1F5093CD03409376
:102A5000CC038193919302C0E0E0F0E0CF01DF91DD
:102A6000CF910895CF93DF93009709F487C0FC01BD
:102A7000329713821282C091CE03D091CF03209758
:102A800081F420813181280F391F8091CC039091EE
:102A9000CD038217930779F5F093CD03E093CC0330
:102AA0006DC0DE0120E030E0AE17BF0750F4129693
:102AB0004D915C9113979D014115510509F1DA0182
:102AC000F3CFB383A28340815181840F951F8A176E
:102AD0009B0771F48D919C911197840F951F02961D
:102AE0009183808312968D919C9113979383828317
:102AF0002115310529F4F093CF03E093CE033EC0B6
:102B0000D9011396FC93EE9312974D915D91A40F0A
:102B1000B51FEA17FB0779F480819181840F951F17
:102B20000296D90111969C938E938281938113967C
:102B30009C938E931297E0E0F0E08A819B8100974E
:102B400019F0FE01EC01F9CFCE01029628813981FE
:102B5000820F931F2091CC033091CD0328173907A2
:102B600069F4309729F41092CF031092CE0302C07B
:102B700013821282D093CD03C093CC03DF91CF9107
:102B80000895A0E0B0E0E7ECF5E10C94A517EC01A6
:102B9000CB01209719F40E949A14B8C0FE01E60FE9
:102BA000F71F9E0122503109E217F30708F4ACC069
:102BB000D9010D911C91119706171707B8F0053030
:102BC000110508F49FC0A801445051094617570742
:102BD00008F498C002501109061B170B01931193BA
:102BE0006D937C93CF010E9432158CC05B01A01ABB
:102BF000B10A4E01800E911EA091CE03B091CF0379
:102C0000612C712C60E070E0109709F449C0A815A0
:102C1000B905C9F5ED90FC901197670142E0C40E2B
:102C2000D11CCA14DB0478F147018A189B0864019F
:102C300042E0C40ED11C1296BC9012971396AC9130
:102C4000B5E0CB16D10440F0B282A383918280829A
:102C5000D9018D939C9309C00E5F1F4F0E0D1F1D50
:102C6000F90111830083EB2DFA2F6115710531F005
:102C7000DB011396FC93EE93129744C0F093CF03BD
:102C8000E093CE033FC06D917C9111976616770655
:102C900008F43B01BD0112960D90BC91A02DB4CF5C
:102CA0006091CC037091CD0368157905E9F468163D
:102CB0007906D0F440910001509101014115510570
:102CC00041F44DB75EB76091040170910501461B58
:102CD000570BE417F507C0F4F093CD03E093CC0352
:102CE000F901918380830EC00E949A147C010097A1
:102CF00059F0A801BE010E94BA16CE010E943215F9
:102D0000C70104C0CE0102C080E090E0CDB7DEB7BD
:102D1000EEE00C94C1171F93FC0199278827BC0192
:102D2000E89411911032E9F3193010F01E30C8F315
:102D30001B3251F01D3249F4689406C00E942A17D4
:102D4000610F711D811D911D119110531A30B0F347
:102D50003EF490958095709561957F4F8F4F9F4F72
:102D60001F9108959111089581568A5108F4805257
:102D700085580895FB01DC0102C001900D9241507D
:102D80005040D8F70895FB01DC018D910190801926
:102D90000110D9F3990B0895FB01DC0101900D920C
:102DA0000020E1F70895FB0151915523A9F0BF01DF
:102DB000DC014D9145174111E1F759F4CD01019026
:102DC000002049F04D9140154111C9F3FB0141111B
:102DD000EFCF81E090E001970895FA01A191B081D1
:102DE000009719F41097E1F0CD01DC01CD010D90B1
:102DF000002011F4C00113C0FB012191222319F01E
:102E00002015D9F7F3CFFB012191201519F41E925B
:102E1000119606C02223C1F70D900020A1F7D00122
:102E2000FA01A193B08308954532510520F4423050
:102E300010F00C941F17FB011082CB010895BB27E3
:102E40004A3031F4992322F4BDE2909581959F4F49
:102E50000C947817592F482F372F262F660F771F7E
:102E6000881F991F660F771F881F991F620F731F96
:102E7000841F951F660F771F881F991F089525329D
:102E8000310520F4223010F00C944A17FA01108218
:102E9000CA010895BB27FA01A62F621771058105A3
:102EA0009105330B30FB66F0AA27660F771F881F4A
:102EB000991FAA1FA21710F0A21B63953850A9F7FB
:102EC000A05DAA3308F0A95DA19336F7B111B193C3
:102ED0001082CA010C9491174532510520F44230FA
:102EE00010F00C947717FB011082CB010895BB27DB
:102EF000FB015527AA27880F991FAA1FA41710F0B6
:102F0000A41B83955051B9F7A05DAA3308F0A95DC1
:102F1000A193009779F7B111B1931192CB010C9461
:102F20009117DC01FC01672F71917723E1F732974C
:102F300004C07C916D9370836291AE17BF07C8F394
:102F400008952F923F924F925F926F927F928F924D
:102F50009F92AF92BF92CF92DF92EF92FF920F9328
:102F60001F93CF93DF93CDB7DEB7CA1BDB0B0FB632
:102F7000F894DEBF0FBECDBF09942A8839884888EF
:102F80005F846E847D848C849B84AA84B984C88485
:102F9000DF80EE80FD800C811B81AA81B981CE0F7C
:102FA000D11D0FB6F894DEBF0FBECDBFED01089561
:102FB00010E0C6ECD0E004C0FE010E9496142296F8
:0A2FC000C83CD107C9F7F894FFCF11
:102FCA000000D0038000190002000200022C015800
:102FDA00020900060005000D000B0A0152002C2010
:102FEA0047002C204200464E00666E00464E3A20AC
:102FFA000054007400440049006900436F6D6D611C
:10300A006E64203A20002D006E6F742070726F6318
:10301A00657373656400532C00422C005363616C22
:10302A006564204672657175656E63793A2000574A
:10303A00616E746564204672657175656E63793A6E
:10304A0020005469636B436F756E743A2000313304
:10305A00003000000000001008A60D7C08EF07628F
:10306A00089408000000002A0CA60DAC0BC50BB78B
:10307A000B080C0D0A006E616E00696E66006F76B1
:04308A0066002E00AE
:00000001FF
