:100000000C9464000C948C000C948C000C94770875
:100010000C9477080C9477080C948C000C94500680
:100020000C948C000C948C000C948C000C948C0020
:100030000C948C000C948C000C948C000C948C0010
:100040000C942D0A0C948C000C94620D0C94940D5D
:100050000C948C000C948C000C948C000C948C00F0
:100060000C948C000C948C0000000008000201002D
:100070000003040700000000000000000102040863
:100080001020408001020408102001020408102002
:10009000040404040404040402020202020203032E
:1000A00003030303000000002300260029000000D2
:1000B0000000250028002B0000000000240027007D
:1000C0002A007606C40DB20611241FBECFEFD8E079
:1000D000DEBFCDBF11E0A0E0B1E0EEEFFBE202C079
:1000E00005900D92AA3FB107D9F724E0AAEFB1E03D
:1000F00001C01D92A933B207E1F710E0C6ECD0E0D1
:1001000004C02297FE010E94B012C23CD107C9F779
:100110000E94080E0C94F2150C9400007F928F92AE
:100120009F92AF92BF92CF92DF92EF92FF920F9386
:100130001F93CF93DF93CDB7DEB76E970FB6F894CA
:10014000DEBF0FBECDBF882311F082E001C083E087
:100150002FEF829FC001112464E170E00E945912C8
:10016000862E03EC12E0712C912CA12CBB24BA94A6
:1001700094EFC92EDD24D394E12CF12CF8013297B1
:10018000B0823196A082F8019082C182D282E3824D
:10019000F4824AE0692DCE0101960E94BB0F4AE02D
:1001A0006A2DCE0107960E94BB0F4AE06B2DCE014F
:1001B00043960E94BB0F6CE171E0CE010D960E9448
:1001C0006D0FBE016D5E7F4FCE010D960E948010B7
:1001D0006EE171E00E949310BE01695F7F4F0E9443
:1001E000801062E271E00E949310BE016F5F7F4F4A
:1001F0000E948010BC01CE0149960E949A0FCE0148
:100200000D960E94FF0ECE0143960E94FF0ECE0176
:1002100007960E94FF0ECE0101960E94FF0EBE01BE
:10022000675E7F4F87E993E00E94690E711005C0F9
:10023000B818B81478F0A80C1FC0F1E07F1205C000
:10024000A818A81468F0980C17C09818981478F09B
:10025000B80C12C077247394912CAA24AA9405C0D8
:1002600082E0782E99249A94A12CB12C05C0712C8F
:10027000912CA12CBB24BA94CE0149960E94FF0E6A
:100280000750110922E00733120709F077CF6E9665
:100290000FB6F894DEBF0FBECDBFDF91CF911F9197
:1002A0000F91FF90EF90DF90CF90BF90AF909F9015
:1002B0008F907F900895FF920F931F93CF93DF93BA
:1002C00000D0CDB7DEB78A0160E070E00E94CC10AC
:1002D0009A838983F8011182108266E0F62EF80174
:1002E0008081918105974CF081E0F8012081318176
:1002F000121613066CF180E02BC0AE014F5F5F4F0A
:100300006AE571E089819A810E940715BC01009716
:1003100059F3F80120813181F29EC001F39E900DC6
:10032000112483519D4F0E94A30FF8012081318138
:10033000F29EC001F39E900D112483519D4F0E94A7
:10034000FE10F80180819181019691838083C7CF4F
:100350000F900F90DF91CF911F910F91FF90089513
:10036000FF920F931F93CF93DF93CDB7DEB72C97F8
:100370000FB6F894DEBF0FBECDBF8C0166E271E010
:10038000CE0107960E946D0FBE01695F7F4FC801C5
:100390000E94FA10892BB1F069E271E0CE0101965A
:1003A0000E946D0FBE016F5F7F4FC8010E94FA105F
:1003B000FF24F394892B09F0F12CCE0101960E94C1
:1003C000FF0E02C0FF24F394CE0107960E94FF0E99
:1003D000FF20A9F0C80106960E9412116093FA014D
:1003E0006CE271E087E993E00E94630E6091FA018C
:1003F00042E050E087E993E00E94E80EA6C061E386
:1004000071E0CE0107960E946D0FBE01695F7F4FBC
:10041000C8010E94FA10892BB1F063E371E0CE01AC
:1004200001960E946D0FBE016F5F7F4FC8010E9451
:10043000FA10FF24F394892B09F0F12CCE010196D8
:100440000E94FF0E02C0FF24F394CE0107960E9483
:10045000FF0EFF2009F44FC065E371E0CE0107965F
:100460000E946D0FBE01695F7F4FC8010E94FA10A4
:100470000197B1F064E571E0CE0101960E946D0F25
:10048000BE016F5F7F4FC8010E94FA10FF24F394F2
:10049000019709F0F12CCE0101960E94FF0E02C0D7
:1004A000FF24F394CE0107960E94FF0EF1104DC079
:1004B00067E371E0CE0107960E946D0FBE01695F90
:1004C0007F4FC8010E94FA10019781F069E371E043
:1004D000CE0101960E946D0FBE016F5F7F4FC80174
:1004E0000E94FA10CE0101960E94FF0ECE010796DF
:1004F0000E94FF0E2AC06BE371E0CE0101960E94BC
:100500006D0FB801CE0101960E94801066E471E083
:100510000E949310B8016A5F7F4F0E94801066E4CA
:1005200071E00E949310B801645F7F4F0E948010B9
:1005300068E471E00E949310BC0188EC92E00E9494
:10054000690ECE0101960E94FF0E2C960FB6F8940C
:10055000DEBF0FBECDBFDF91CF911F910F91FF90F6
:100560000895209106018091FF0190910002821B65
:100570009109909300028093FF018091FF01909177
:10058000000297FD0DC08091FF01909100028F3F06
:10059000910509F044F48091FF019091000205C09B
:1005A00080E090E002C08FEF90E090930002809393
:1005B000FF016091FF0170910002809115010E947E
:1005C000260B8091FA0182FD60C020910202809189
:1005D000FD019091FE01821B91099093FE01809391
:1005E000FD018091FD019091FE0197FD0DC080916C
:1005F000FD019091FE018F3F910509F044F4809137
:10060000FD019091FE0105C080E090E002C08FEFF7
:1006100090E09093FE018093FD016091FD01709147
:10062000FE01809113010E94260B2091010280910E
:10063000FB019091FC01821B91099093FC01809336
:10064000FB018091FB019091FC0197FD0DC0809111
:10065000FB019091FC018F3F910509F044F48091DA
:10066000FB019091FC0105C080E090E002C08FEF9B
:1006700090E09093FC018093FB016091FB017091ED
:10068000FC01809111010C94260B08958F929F928A
:10069000AF92BF92CF92DF92EF92FF920F931F9390
:1006A000CF93DF93CDB7DEB762970FB6F894DEBF76
:1006B0000FBECDBF80913A020E94090B8C01409180
:1006C00003025091040260910502709106024E5F90
:1006D0005F4F6F4F7F4F409303025093040260932C
:1006E0000502709306028090030290900402A0908D
:1006F0000502B09006028091070290910802A09135
:100700000902B0910A02881A990A80910D0190910C
:100710000E01FF24F394881599050CF0F12C8091BB
:10072000070190910801081719076CF4FF2059F090
:100730008091090190910A010817190724F4109378
:100740000A01009309018091070190910801801727
:1007500091075CF480910B0190910C018017910737
:1007600024F410930C0100930B012BEF82169104DB
:100770000CF4A0C18091FA0180FF50C06091030287
:1007800070910402809105029091060222E330E00C
:1007900040E050E00E946D12672B682B692BF1F549
:1007A000409103025091040260910502709106028B
:1007B00020E1CE0101960E9414104AE0B801CE015A
:1007C0000D960E94E80F66E571E0CE0107960E9443
:1007D0006D0FBE01635F7F4FCE0107960E948010B0
:1007E0006AE571E00E949310BE016F5F7F4F0E9427
:1007F00080106AE571E00E949310BC0187E993E0E4
:100800000E94690ECE0107960E94FF0ECE010D9642
:100810000E94FF0ECE0101960E94FF0E80910701FB
:1008200090910801801791070CF044C1809121023A
:10083000811140C1FF2009F43DC181E08093210274
:1008400061E0809117010E94E70B90921001809265
:100850000F0180910F019091100165E070E00E94FE
:100860005912CB01880F991F860F971F90930E0185
:1008700080930D018091030290910402A0910502E2
:10088000B09106028093070290930802A093090298
:10089000B0930A0280911F02909120026AE070E0FA
:1008A0000E9459129093200280931F02E0911F0230
:1008B000F091200280910F0190911001EE0FFF1F27
:1008C000E55FFD4F9183808380911F02909120020C
:1008D00001969093200280931F02A12CB12C80E0FE
:1008E00090E0F501EE0FFF1FE55FFD4F20813181A4
:1008F000820F931F2FEFA21AB20A2AE0A216B104A8
:1009000081F7B5010E9445129B0140E050E060E68E
:100910007AEE80E090E00E948F1269017A01809166
:10092000FA0181FFFBC08091240290912502B5015C
:100930000E9459129093250280932402E091240290
:10094000F0912502EE0FFF1FEA5DFD4FD182C082BC
:100950008091240290912502019690932502809324
:10096000240260E070E080E090E0FB01EE0FFF1FEA
:10097000EA5DFD4F20813181820F931F6F5F7F4FB2
:100980006A30710591F70E945912709323026093A7
:10099000220240910302509104026091050270917D
:1009A000060220E1CE0101960E94141060912202FD
:1009B000709123024AE0CE010D960E94E80F69E58E
:1009C00071E0CE0107960E946D0FBE01635F7F4FFD
:1009D000CE0107960E9480106AE571E00E94931094
:1009E000BE016F5F7F4F0E9480106AE571E00E9438
:1009F0009310BC0187E993E00E94690ECE0107962F
:100A00000E94FF0ECE010D960E94FF0ECE010196B0
:100A10000E94FF0E2091220230912302C901889783
:100A200097FD0396959587959595879584319105C2
:100A300014F083E190E097FF02C080E090E027E0AF
:100A4000289FF001299FF00D1124E45CFD4F808167
:100A500090E0909300028093FF018091FF019091BC
:100A600000022AE030E0B9010E94591260930601A9
:100A70008091FA0182FD1EC0818190E09093FE0179
:100A80008093FD018091FD019091FE01B9010E94CA
:100A9000591260930202828190E09093FC0180934E
:100AA000FB018091FB019091FC01B9010E94591258
:100AB00060930102809107019091080108171907BE
:100AC00024F48091210281112EC085EC881689E0E2
:100AD00098060CF458C0109200021092FF0180E0BA
:100AE00092E0909308018093070190930C0180930A
:100AF0000B0190930A018093090180910302909168
:100B00000402A0910502B09106028093070290931F
:100B10000802A0930902B0930A0235C03093230261
:100B20002093220236CF60E0809117010E94E70BEC
:100B30001092210280910B0190910C0140910901CA
:100B400050910A012091090130910A01841B950BF3
:100B500097FD019695958795820F931F90930801B5
:100B600080930701809107019091080190930C01F7
:100B700080930B01809107019091080190930A01E5
:100B800080930901A2CF62960FB6F894DEBF0FBE24
:100B9000CDBFDF91CF911F910F91FF90EF90DF902C
:100BA000CF90BF90AF909F908F900895CF93BC014E
:100BB000C2E0C093B00086E08093B100882777FD43
:100BC0008095982F0E94B91120E030E04AE754E464
:100BD0000E941E119B01AC0160E070E080E89FE381
:100BE0000E941E119B01AC0160E074E284E797E46F
:100BF0000E941E110E94861161506093B300C09341
:100C000070007894CF91089560ED77E080E090E0F7
:100C10000E94A60A20E032EC41E050E067E973E070
:100C20008BE593E00E94A5098BE593E00E94A20961
:100C30006CE571E080918C0390918D030E94630EAE
:100C40006AE070E080E090E00E94A60A41E060E087
:100C50008BE593E00E94120A61E0809117010E94E7
:100C6000AE0B61E0809115010E94AE0B61E08091B6
:100C700013010E94AE0B61E0809111010E94AE0B46
:100C800026E040E052EC61E070E087E993E00E94EA
:100C9000000D82E090E00E94D60581E00C948E0069
:100CA0001F920F920FB60F9211242F933F934F93E1
:100CB0005F936F937F938F939F93AF93BF93EF93C4
:100CC000FF93F8940E9446037894FF91EF91BF91AF
:100CD000AF919F918F917F916F915F914F913F91D4
:100CE0002F910F900FBE0F901F90189562E971E041
:100CF00081E193E00E946D0F62E971E08BE093E087
:100D00000E946D0F65E371E08DEE92E00E946D0F21
:100D10006EE671E083EF92E00E946D0F61E771E093
:100D200089EF92E00E946D0F61E771E08FEF92E032
:100D30000E946D0F61E771E085E093E00E946D0F06
:100D400020E04091190160911A0188EC92E00E9424
:100D50004A098091060180930202809106018093E6
:100D600001020895CF93DF9388EC92E00E94F1088E
:100D7000CBE0D3E02697CE010E94FF0E82E0CD3E6D
:100D8000D807C1F78BE093E00E94FF0E81E193E06A
:100D9000DF91CF910C94FF0ECF93DF93EC0188ECA1
:100DA00092E00E943A08892BD1F088EC92E00E94F0
:100DB000AD078D3039F08A3029F02C813D812B3000
:100DC000310548F062E971E0CE010E94AD1091E07A
:100DD000882331F004C0682FCE010E946D1090E08E
:100DE000892FDF91CF910895CF93DF93EC0187E9AD
:100DF00093E00E941D0C892BD1F087E993E00E94BB
:100E0000360C8D3039F08A3029F02C813D812B3021
:100E1000310548F062E971E0CE010E94AD1091E029
:100E2000882331F004C0682FCE010E946D1090E03D
:100E3000892FDF91CF9108951F93CF93DF93CDB783
:100E4000DEB728970FB6F894DEBF0FBECDBF81E1A5
:100E500093E00E94CC06882371F00E94770A609389
:100E6000E7027093E8028093E9029093EA0281E03E
:100E70008093EC0213C08BE093E00E94F406882379
:100E800069F00E94770A6093E7027093E80280930A
:100E9000E9029093EA0281E08093EB028091EC02F8
:100EA000882319F161E173E0CE0101960E949A0F47
:100EB000AE01495F5F4F6DEE72E0CE0101960E9478
:100EC0005B01182FCE0101960E94FF0E112321F025
:100ED0008DEE92E00E94B00162E971E081E193E061
:100EE0000E94A30F1092EC0226C08091EB0288238F
:100EF00011F16BE073E0CE0101960E949A0FAE01F2
:100F0000495F5F4F6DEE72E0CE0101960E945B017A
:100F1000182FCE0101960E94FF0E112321F08DEEB5
:100F200092E00E94B00162E971E08BE093E00E94E0
:100F3000A30F1092EB020E94B10264E170E080E026
:100F400090E00E94A60A28960FB6F894DEBF0FBE66
:100F5000CDBFDF91CF911F9108952091590330911A
:100F60005A0328173907B9F4909117038091180391
:100F7000981789F0E0911703F0E0E75EFC4F80815D
:100F80002091170330E02F5F3F4F2F7333272093BB
:100F9000170390E008958FEF9FEF08951F93CF936D
:100FA000DF93DC015C968D919C915D97009749F4ED
:100FB00081E090E013969C938E93129780E090E0EE
:100FC0003BC05196ED91FC91529750962C915097C1
:100FD000322F30951FB75E964C915E9741FB772775
:100FE00070F941FD6095F8944081772311F0422B10
:100FF00001C043234083EC012197F1F748E0508181
:1010000060FF02C0522B01C053235083EC01219793
:10101000F1F76695415099F78081772311F083238A
:1010200001C0822B80831FBF5C968D919C915D9740
:101030000197F1F781E090E0DF91CF911F91089542
:101040002091590330915A032817390781F4909160
:10105000170380911803981751F0E0911703F0E0FF
:10106000E75EFC4F8081992787FD909508958FEF6B
:101070009FEF08952091590330915A03281739079B
:1010800071F4809118032091170390E0805C9F4FCA
:10109000821B910960E470E00E945912089580E07B
:1010A00090E008952091590330915A032817390789
:1010B00039F48FB7F89410921803109217038FBF6A
:1010C0000895E0915903F0915A03E817F90769F47C
:1010D000A389B4899C918589809589238C931092EA
:1010E0005A031092590381E0089580E008951F92F9
:1010F0000F920FB60F9211242F933F934F935F934C
:101100006F937F938F939F93AF93BF93EF93FF93CF
:10111000E0915903F0915A03309709F451C0868D3C
:10112000A685B785958581FF04C08C91892329F414
:1011300047C08C91892309F043C0A389B4899C914D
:101140008589809589238C93868997890197F1F702
:10115000208D318DA685B785758558E040E0C901A1
:101160000197F1F7842F90E095958795482F6C9122
:10117000672309F04068515091F7868D81FD4095B5
:101180008091180390E001968F739927209117039F
:10119000281749F0A0911803B0E0A75EBC4F4C930C
:1011A0008093180303C0868D8160868F828D938D16
:1011B0000197F1F7A389B4898C919589892B8C9338
:1011C000FF91EF91BF91AF919F918F917F916F911F
:1011D0005F914F913F912F910F900FBE0F901F90F5
:1011E000189527E731E0FC01318320830C946108D6
:1011F0001F93CF93DF93EC01162F6E8D6695617070
:1012000081E06827812F0E94E70B61E0812F0E9417
:10121000AE0B812F90E0FC01E458FF4FE491E88B86
:10122000FC01E057FF4FE491F0E0EE0FFF1FE255A5
:10123000FF4F859194919A8B898BDF91CF911F916C
:1012400008951F93CF93DF93EC01162F60E0812F59
:101250000E94AE0B8E8D81FD04C061E0812F0E9443
:10126000E70B1C87812F90E0FC01E458FF4FE491CD
:10127000ED87FC01E057FF4FE491F0E0EE0FFF1F18
:10128000EC55FF4F859194919F878E87DF91CF9189
:101290001F910895FF920F931F93CF93DF93EC015B
:1012A000F62E522F1B821A8208EE13E020E030E067
:1012B0000C831D832E833F8387E791E09983888386
:1012C0001F8A1E8A198E188E1B8E1A8E1D8E1C8EDA
:1012D0008E8D8E7F50FB81F98E8F642FCE010E9400
:1012E000F8086F2DCE01DF91CF911F910F91FF90E4
:1012F0000C9421090F931F93CF93DF93EC01662386
:1013000059F00E94770A69837A838B839C83DF91EB
:10131000CF911F910F9108950E94770A09811A8138
:101320002B813C81601B710B820B930B6436710522
:101330008105910530F763E070E080E090E00E9465
:10134000A60AEACF60E00C947A09FB01BA01A90170
:10135000DC01D296FC93EE93D19726E0CF010C945A
:10136000000D1F93CF93DF93EC01162F63E871E01C
:1013700089A99AA90E94630E4AE050E0612F89A9C9
:101380009AA90E94E10E6AE871E089A99AA90E94CF
:10139000630E62E370E080E090E0DF91CF911F91F7
:1013A0000C94A60A1F93CF93DF93EC01162F8D8127
:1013B000882379F189A99AA9DC01ED91FC91048037
:1013C000F581E02D0995892BA9F307C08637910592
:1013D00019F18835910509F41D8289A99AA9DC01C2
:1013E000ED91FC910480F581E02D09951816190600
:1013F00084F489A99AA9DC01ED91FC910680F7811A
:10140000E02D09958336910509F7612FCE010E94E1
:10141000B10983E690E002C086E790E0DF91CF91CA
:101420001F9108950F931F93CF93DF931F92CDB712
:10143000DEB78C01662349F081E0F801858360E026
:10144000C80149830E94D2094981F80145830F9060
:10145000DF91CF911F910F9108951F920F920FB6B8
:101460000F9211242F933F938F939F93AF93BF932A
:1014700080918F0390919003A0919103B09192037A
:1014800030918E0323E0230F2D3720F40196A11D08
:10149000B11D05C026E8230F0296A11DB11D2093A2
:1014A0008E0380938F0390939003A0939103B09346
:1014B00092038091930390919403A0919503B0912E
:1014C00096030196A11DB11D8093930390939403FD
:1014D000A0939503B0939603BF91AF919F918F9185
:1014E0003F912F910F900FBE0F901F9018952FB71F
:1014F000F89460918F037091900380919103909183
:1015000092032FBF08953FB7F89480919303909171
:101510009403A0919503B091960326B5A89B05C0AE
:101520002F3F19F00196A11DB11D3FBF6627782FEF
:10153000892F9A2F620F711D811D911D42E0660F48
:10154000771F881F991F4A95D1F70895CF92DF9290
:10155000EF92FF92CF93DF936B017C010E94830A8D
:10156000EB01C114D104E104F10489F00E941D11C2
:101570000E94830A6C1B7D0B683E734090F381E0F0
:10158000C81AD108E108F108C851DC4FEACFDF9151
:10159000CF91FF90EF90DF90CF900895789484B52D
:1015A000826084BD84B5816084BD85B5826085BD5F
:1015B00085B5816085BDEEE6F0E080818160808345
:1015C000E1E8F0E010828081826080838081816028
:1015D0008083E0E8F0E0808181608083E1EBF0E0EF
:1015E000808184608083E0EBF0E080818160808393
:1015F000EAE7F0E08081846080838081826080837C
:101600008081816080838081806880831092C100A6
:1016100008958E3008F08E50877020911B0190E461
:10162000299F90011124822B80937C0080917A0065
:10163000806480937A0080917A0086FDFCCF80914F
:1016400078002091790090E0922B08951F93CF931A
:10165000DF93182FEB0161E00E94AE0B209711F48D
:1016600060E004C0CF3FD10539F461E0812FDF9104
:10167000CF911F910C94E70BE12FF0E0E859FF4F59
:10168000E491E330F9F048F4E130B9F0E230A1F54B
:1016900084B5806284BDC8BD34C0E730E9F0E8306D
:1016A00019F1E43049F580918000806280938000D8
:1016B000D0938B00C0938A0024C084B5806884BD19
:1016C000C7BD1FC080918000806880938000D09348
:1016D0008900C093880015C08091B0008068809315
:1016E000B000C093B3000DC08091B00080628093C1
:1016F000B000C093B40005C0C038D1050CF0B5CF20
:10170000AFCFDF91CF911F910895833081F028F4FE
:10171000813099F08230A1F008958730A9F08830A7
:10172000B9F08430D1F4809180008F7D03C0809126
:1017300080008F7780938000089584B58F7702C0F2
:1017400084B58F7D84BD08958091B0008F7703C0EC
:101750008091B0008F7D8093B0000895CF93DF9388
:1017600090E0FC01E458FF4F2491FC01E057FF4F4B
:101770008491882349F190E0880F991FFC01E85477
:10178000FF4FA591B49182559F4FFC01C591D49113
:101790009FB7611108C0F8948C91209582238C9397
:1017A000888182230AC0623051F4F8948C91322FE0
:1017B000309583238C938881822B888304C0F8948E
:1017C0008C91822B8C939FBFDF91CF9108950F93C3
:1017D0001F93CF93DF931F92CDB7DEB7282F30E052
:1017E000F901E859FF4F8491F901E458FF4F149132
:1017F000F901E057FF4F04910023C9F0882321F03D
:1018000069830E94850B6981E02FF0E0EE0FFF1FD6
:10181000E255FF4FA591B4919FB7F8948C91611157
:1018200003C01095812301C0812B8C939FBF0F9023
:10183000DF91CF911F910F910895FC01818D228D31
:1018400090E0805C9F4F821B91098F7399270895C8
:10185000FC01918D828D981731F0828DE80FF11D7A
:10186000858D90E008958FEF9FEF0895FC01918D95
:10187000828D981761F0828DDF01A80FB11D5D96F2
:101880008C91928D9F5F9F73928F90E008958FEF60
:101890009FEF08958AEB9DE0892B49F080E090E06E
:1018A000892B29F00E94BA0D81110C940000089533
:1018B000FC01848DDF01A80FB11DA35ABF4F2C91ED
:1018C000848D90E001968F739927848FA689B789BC
:1018D0002C93A089B1898C9180648C93938D848D95
:1018E000981306C00288F389E02D80818F7D808364
:1018F0000895CF93DF93EC01888D8823C9F0EA899E
:10190000FB89808185FD05C0A889B9898C9186FDF8
:101910000FC00FB607FCF5CF808185FFF2CFA889F5
:10192000B9898C9185FFEDCFCE010E94580CE7CF8D
:10193000DF91CF910895CF92DF92FF920F931F9383
:10194000CF93DF931F92CDB7DEB76C0181E0D60154
:1019500058968C9358975B969C915B975C968C916C
:101960005C97981307C05096ED91FC915197808138
:1019700085FD2EC0F601038D10E00F5F1F4F0F7322
:101980001127F02EF601848DF81211C00FB607FC56
:10199000F9CFD6015096ED91FC915197808185FF4A
:1019A000F1CFC60169830E94580C6981EBCF838D0A
:1019B000E80FF11DE35AFF4F6083D6015B960C934D
:1019C0005B975296ED91FC915397808180620CC099
:1019D000D6015696ED91FC91579760835096ED9104
:1019E000FC91519780818064808381E090E00F902A
:1019F000DF91CF911F910F91FF90DF90CF900895CD
:101A0000BF92CF92DF92EF92FF92CF93DF93EC01E0
:101A10006A017B01B22EE889F98982E08083411551
:101A200081EE580761057105A1F060E079E08DE372
:101A300090E0A70196010E946D12215031094109E1
:101A400051095695479537952795211580E1380717
:101A500098F0E889F989108260E874E88EE190E0F6
:101A6000A70196010E946D122150310941095109C7
:101A70005695479537952795EC85FD853083EE85FE
:101A8000FF852083188EEC89FD89B082EA89FB8965
:101A9000808180618083EA89FB898081886080837E
:101AA000EA89FB89808180688083EA89FB8980815B
:101AB0008F7D8083DF91CF91FF90EF90DF90CF906B
:101AC000BF9008951F920F920FB60F9211242F937B
:101AD0008F939F93EF93FF93E091A703F091A80357
:101AE0008081E091AD03F091AE0382FD12C0908140
:101AF0008091B0038F5F8F732091B103821751F0F3
:101B0000E091B003F0E0E956FC4F958F8093B0036D
:101B100001C08081FF91EF919F918F912F910F9044
:101B20000FBE0F901F9018951F920F920FB60F9235
:101B300011242F933F934F935F936F937F938F93D2
:101B40009F93AF93BF93EF93FF9387E993E00E9436
:101B5000580CFF91EF91BF91AF919F918F917F9121
:101B60006F915F914F913F912F910F900FBE0F900A
:101B70001F90189587E993E00E941D0C21E0892BA6
:101B800009F420E0822F089510929A03109299038D
:101B900088EE93E0A0E0B0E080939B0390939C03D9
:101BA000A0939D03B0939E038FED91E090939803D3
:101BB0008093970385EC90E09093A4038093A30314
:101BC00084EC90E09093A6038093A50380EC90E0D2
:101BD0009093A8038093A70381EC90E09093AA03CD
:101BE0008093A90382EC90E09093AC038093AB03C5
:101BF00086EC90E09093AE038093AD031092B00317
:101C00001092B1031092B2031092B3030895089595
:101C10000E94CE0A0E94070E0E940406CAE4DCE07D
:101C20000E941C072097E1F30E944A0CF9CFCF9243
:101C3000DF92EF92FF920F931F93CF93DF936C018C
:101C40007A01EB01E60EF71E00E010E0CE15DF058D
:101C500061F06991D601ED91FC910190F081E02D48
:101C6000C6010995080F191FF1CFC801DF91CF9167
:101C70001F910F91FF90EF90DF90CF900895611525
:101C8000710581F0DB010D900020E9F7AD014150B5
:101C90005109461B570BDC01ED91FC910280F38149
:101CA000E02D099480E090E00895DC01ED91FC9135
:101CB000DB0114964D915C9115976D917C9102809A
:101CC000F381E02D09940C943F0E60E971E00C94CF
:101CD0003F0E0F931F93CF93DF93EC010E94550E9D
:101CE0008C01CE010E94650E800F911FDF91CF9174
:101CF0001F910F9108958F929F92AF92BF92CF92B2
:101D0000DF92EF92FF920F931F93CF93DF93CDB7A4
:101D1000DEB7A1970FB6F894DEBF0FBECDBF7C0132
:101D2000C42EE52FCB01D22E19A221E02D1510F0E3
:101D30002AE0D22E8E010F5D1F4F8D2C912CA12CED
:101D4000B12C6C2D7E2FA50194010E946D128C2D5B
:101D5000D29E80191124015011098A3014F4805D3B
:101D600001C0895CF80180832115310541055105C9
:101D700021F0C22EE32FCA01E4CFB801C7010E94AF
:101D80003F0EA1960FB6F894DEBF0FBECDBFDF9118
:101D9000CF911F910F91FF90EF90DF90CF90BF9068
:101DA000AF909F908F9008952115310541F4DC018B
:101DB000ED91FC910190F081E02D642F09940C9439
:101DC0007B0E9A01462F50E060E070E00C94D40E38
:101DD0000F931F93CF93DF93EC019A01462F50E0AE
:101DE00060E070E00E94D40E8C01CE010E94650E6E
:101DF000800F911FDF91CF911F910F910895FC01EA
:101E0000808191810C944C13CF93DF93EC018881F6
:101E10009981009711F00E944C13198218821D823B
:101E20001C821B821A82DF91CF9108950F931F931A
:101E3000CF93DF93EC018B016F5F7F4F8881998196
:101E40000E94DB13009731F0998388831B830A83F8
:101E500081E001C080E0DF91CF911F910F91089543
:101E6000CF93DF93EC0188819981892B29F08A81B6
:101E70009B818617970760F4CE010E94160F882376
:101E800041F08C819D81892B19F4E881F9811082C0
:101E900081E0DF91CF910895EF92FF920F931F930E
:101EA000CF93DF93EC017B018A01BA010E94300FCE
:101EB000811104C0CE010E94040F07C01D830C8352
:101EC000B701888199810E94E614CE01DF91CF91FC
:101ED0001F910F91FF90EF900895FC0111821082E5
:101EE00013821282158214826115710559F0FB016B
:101EF00001900020E9F7AF0141505109461B570BF3
:101F00000C944C0F0895CF93DF93EC01FB018617DF
:101F1000970761F0608171816115710529F0448135
:101F200055810E944C0F02C00E94040FCE01DF9128
:101F3000CF910895FC0111821082138212821582C2
:101F400014820C94830FCF93DF93EC01611571051C
:101F500061F0FB0101900020E9F7AF014150510908
:101F6000461B570B0E944C0F02C00E94040FCE016B
:101F7000DF91CF9108950F931F93CF93DF93CDB748
:101F8000DEB729970FB6F894DEBF0FBECDBF8C0128
:101F9000862FF80111821082138212821582148218
:101FA00050E0BE016F5F7F4F90E00E948615BE013A
:101FB0006F5F7F4FC8010E94A30F29960FB6F89458
:101FC000DEBF0FBECDBFDF91CF911F910F9108955E
:101FD0000F931F93CF93DF93CDB7DEB762970FB602
:101FE000F894DEBF0FBECDBF8C01CB01F80111828A
:101FF0001082138212821582148250E0BE016F5F3C
:102000007F4F0E942E15BE016F5F7F4FC8010E9457
:10201000A30F62960FB6F894DEBF0FBECDBFDF915F
:10202000CF911F910F9108950F931F93CF93DF933B
:10203000CDB7DEB7A1970FB6F894DEBF0FBECDBF08
:102040008C01CB01BA01F801118210821382128235
:102050001582148230E0AE014F5F5F4F0E94591528
:10206000BE016F5F7F4FC8010E94A30FA1960FB6FC
:10207000F894DEBF0FBECDBFDF91CF911F910F91BE
:102080000895EF92FF920F931F93CF93DF93EC018C
:102090007B010C811D816115710511F480E016C072
:1020A0004115510591F0040F151FB8010E94300F22
:1020B0008823A1F3288139818C819D81B701820F0A
:1020C000931F0E94E6141D830C8381E0DF91CF9162
:1020D0001F910F91FF90EF900895CF93DF9300D061
:1020E000CDB7DEB769831A8241E050E0BE016F5F71
:1020F0007F4F0E9441100F900F90DF91CF91089574
:10210000CF93DF93EC01FB014481558160817181A4
:102110000E944110811103C0CE010E94040FCE0124
:10212000DF91CF910895CF93DF93EC016115710595
:1021300069F0FB0101900020E9F7AF01415051091E
:10214000461B570B0E944110811103C0CE010E9413
:10215000040FCE01DF91CF910895FC0124813581D8
:10216000232B31F421E061157105A1F0FB0108C0BA
:10217000FC01808191816115710531F421E0FC0140
:102180008081882339F005C00E94DD1421E0892B6D
:1021900009F020E0822F0895FC0184819581681761
:1021A000790720F480819181009729F410923404FA
:1021B00084E394E00895860F971F0895CF93DF93EB
:1021C000FC01848195814817590778F4C081D18139
:1021D000FB0160817181CE01840F951F0E94ED1477
:1021E000009719F08C1B9D0B02C08FEF9FEFDF91C2
:1021F000CF91089540E050E00C94DE10CF93DF9330
:10220000FC01C081D181209751F08881882339F069
:10221000992787FD90950E94CC148993F6CFDF9182
:10222000CF910895FC0180819181009711F00C9469
:10223000A51460E070E0CB01089508950CD0EBC0C8
:10224000E3D040F0DAD030F021F45F3F19F0CCC099
:10225000511115C1CFC0F0D098F39923C9F355237C
:10226000B1F3951B550BBB27AA2762177307840789
:1022700038F09F5F5F4F220F331F441FAA1FA9F33F
:1022800033D00E2E3AF0E0E830D091505040E69531
:10229000001CCAF729D0FE2F27D0660F771F881F92
:1022A000BB1F261737074807AB07B0E809F0BB0B81
:1022B000802DBF01FF2793585F4F2AF09E3F5105A5
:1022C00068F092C0DCC05F3FECF3983EDCF386958B
:1022D00077956795B795F7959F5FC9F7880F911D1B
:1022E0009695879597F90895E1E0660F771F881F07
:1022F000BB1F621773078407BA0720F0621B730BBA
:10230000840BBA0BEE1F88F7E095089504D068940B
:10231000B111B5C0089598D088F09F5790F0B92FAB
:102320009927B751A0F0D1F0660F771F881F991F2A
:102330001AF0BA95C9F712C0B13081F09FD0B1E060
:1023400008959CC0672F782F8827B85F39F0B93F70
:10235000CCF3869577956795B395D9F73EF490952C
:102360008095709561957F4F8F4F9F4F0895E894AA
:1023700009C097FB3EF490958095709561957F4FCD
:102380008F4F9F4F9923A9F0F92F96E9BB2793957B
:10239000F695879577956795B795F111F8CFFAF48B
:1023A000BB0F11F460FF1BC06F5F7F4F8F4F9F4FBC
:1023B00016C0882311F096E911C0772321F09EE81A
:1023C000872F762F05C0662371F096E8862F70E080
:1023D00060E02AF09A95660F771F881FDAF7880F5A
:1023E0009695879597F9089597F99F6780E870E02B
:1023F00060E008959FEF80EC089500240A9416167B
:10240000170618060906089500240A9412161306E2
:10241000140605060895092E0394000C11F4882370
:1024200052F0BB0F40F4BF2B11F460FF04C06F5F8C
:102430007F4F8F4F9F4F089557FD9058440F551F62
:1024400059F05F3F71F04795880F97FB991F61F036
:102450009F3F79F087950895121613061406551FAD
:10246000F2CF4695F1DF08C0161617061806991F19
:10247000F1CF86957105610508940895E894BB270E
:1024800066277727CB0197F90895AA1BBB1B51E15B
:1024900007C0AA1FBB1FA617B70710F0A61BB70BD4
:1024A000881F991F5A95A9F780959095BC01CD0179
:1024B000089597FB072E16F4009407D077FD09D0F6
:1024C0000E94451207FC05D03EF4909581959F4FE0
:1024D0000895709561957F4F0895A1E21A2EAA1B69
:1024E000BB1BFD010DC0AA1FBB1FEE1FFF1FA217C4
:1024F000B307E407F50720F0A21BB30BE40BF50BC1
:10250000661F771F881F991F1A9469F76095709549
:10251000809590959B01AC01BD01CF010895052EDA
:1025200097FB1EF400940E94A61257FD07D00E944C
:102530006D1207FC03D04EF40C94A61250954095F2
:10254000309521953F4F4F4F5F4F0895909580955F
:10255000709561957F4F8F4F9F4F0895EE0FFF1F2E
:102560000590F491E02D0994CF93DF93823091058B
:1025700010F482E090E0E0913704F091380420E01C
:1025800030E0A0E0B0E0309739F140815181481748
:102590005907B8F04817590771F482819381109751
:1025A00029F013969C938E9312972CC09093380425
:1025B0008093370427C02115310531F042175307A6
:1025C00018F0A901DB0101C0EF019A01BD01DF0193
:1025D0000280F381E02DD7CF21153105F9F0281BBA
:1025E000390B2430310580F48A819B816115710596
:1025F00021F0FB019383828304C09093380480937D
:102600003704FE01329644C0FE01E20FF31F8193AE
:10261000919322503109398328833AC0209135049F
:1026200030913604232B41F42091020130910301B3
:10263000309336042093350420910001309101013C
:102640002115310541F42DB73EB740910401509159
:102650000501241B350BE0913504F0913604E21797
:10266000F307A0F42E1B3F0B2817390778F0AC01B5
:102670004E5F5F4F2417350748F04E0F5F1F509392
:102680003604409335048193919302C0E0E0F0E07A
:10269000CF01DF91CF910895CF93DF93009709F495
:1026A00087C0FC01329713821282C0913704D09107
:1026B0003804209781F420813181280F391F8091BF
:1026C0003504909136048217930779F5F093360418
:1026D000E09335046DC0DE0120E030E0AE17BF07A7
:1026E00050F412964D915C9113979D01411551053F
:1026F00009F1DA01F3CFB383A28340815181840FC2
:10270000951F8A179B0771F48D919C911197840FE7
:10271000951F02969183808312968D919C911397B9
:10272000938382832115310529F4F0933804E093D3
:1027300037043EC0D9011396FC93EE9312974D9146
:102740005D91A40FB51FEA17FB0779F48081918191
:10275000840F951F0296D90111969C938E938281C6
:10276000938113969C938E931297E0E0F0E08A8118
:102770009B81009719F0FE01EC01F9CFCE01029682
:1027800028813981820F931F2091350430913604BE
:102790002817390769F4309729F4109238041092F9
:1027A000370402C013821282D0933604C0933504DA
:1027B000DF91CF910895A0E0B0E0E1EEF3E10C9459
:1027C000BF15EC01CB01209719F40E94B412B8C0D8
:1027D000FE01E60FF71F9E0122503109E217F307B1
:1027E00008F4ACC0D9010D911C9111970617170779
:1027F000B8F00530110508F49FC0A80144505109F4
:102800004617570708F498C002501109061B170B0A
:10281000019311936D937C93CF010E944C138CC054
:102820005B01A01AB10A4E01800E911EA0913704DF
:10283000B0913804612C712C60E070E0109709F4BD
:1028400049C0A815B905C9F5ED90FC90119767012D
:1028500042E0C40ED11CCA14DB0478F147018A1887
:102860009B08640142E0C40ED11C1296BC901297E2
:102870001396AC91B5E0CB16D10440F0B282A3839D
:1028800091828082D9018D939C9309C00E5F1F4F66
:102890000E0D1F1DF90111830083EB2DFA2F611519
:1028A000710531F0DB011396FC93EE93129744C04F
:1028B000F0933804E09337043FC06D917C911197F9
:1028C0006616770608F43B01BD0112960D90BC9187
:1028D000A02DB4CF60913504709136046815790548
:1028E000E9F468167906D0F4409100015091010195
:1028F0004115510541F44DB75EB7609104017091E7
:102900000501461B570BE417F507C0F4F093360496
:10291000E0933504F901918380830EC00E94B412C4
:102920007C01009759F0A801BE010E94D414CE0189
:102930000E944C13C70104C0CE0102C080E090E0A9
:10294000CDB7DEB7EEE00C94DB151F93FC019927A1
:102950008827BC01E89411911032E9F3193010F086
:102960001E30C8F31B3251F01D3249F4689406C082
:102970000E944415610F711D811D911D119110530D
:102980001A30B0F33EF490958095709561957F4F25
:102990008F4F9F4F1F9108959111089581568A512D
:1029A00008F4805285580895FB01DC0102C00190B3
:1029B0000D9241505040D8F70895FB01DC018D91F4
:1029C000019080190110D9F3990B0895FB01DC01E6
:1029D00001900D920020E1F70895FB0151915523DC
:1029E000A9F0BF01DC014D9145174111E1F759F400
:1029F000CD010190002049F04D9140154111C9F3DE
:102A0000FB014111EFCF81E090E001970895FA01B9
:102A1000A191B081009719F41097E1F0CD01DC018C
:102A2000CD010D90002011F4C00113C0FB012191D4
:102A3000222319F02015D9F7F3CFFB01219120159E
:102A400019F41E92119606C02223C1F70D900020A2
:102A5000A1F7D001FA01A193B08308954532510541
:102A600020F4423010F00C943915FB011082CB0198
:102A70000895BB274A3031F4992322F4BDE29095A2
:102A800081959F4F0C949215592F482F372F262F41
:102A9000660F771F881F991F660F771F881F991F62
:102AA000620F731F841F951F660F771F881F991F62
:102AB00008952532310520F4223010F00C9464156D
:102AC000FA011082CA010895BB27FA01A62F6217E6
:102AD000710581059105330B30FB66F0AA27660F5F
:102AE000771F881F991FAA1FA21710F0A21B6395BA
:102AF0003850A9F7A05DAA3308F0A95DA19336F775
:102B0000B111B1931082CA010C94AB154532510535
:102B100020F4423010F00C949115FB011082CB018F
:102B20000895BB27FB015527AA27880F991FAA1FC5
:102B3000A41710F0A41B83955051B9F7A05DAA33D8
:102B400008F0A95DA193009779F7B111B1931192A3
:102B5000CB010C94AB15DC01FC01672F719177233D
:102B6000E1F7329704C07C916D9370836291AE1748
:102B7000BF07C8F308952F923F924F925F926F92D2
:102B80007F928F929F92AF92BF92CF92DF92EF92FD
:102B9000FF920F931F93CF93DF93CDB7DEB7CA1B7E
:102BA000DB0B0FB6F894DEBF0FBECDBF09942A88A9
:102BB000398848885F846E847D848C849B84AA8451
:102BC000B984C884DF80EE80FD800C811B81AA81DE
:102BD000B981CE0FD11D0FB6F894DEBF0FBECDBFA9
:102BE000ED01089510E0C6ECD0E004C0FE010E94A3
:0E2BF000B0122296C83CD107C9F7F894FFCF67
:102BFE00000039048000190002000200022C015866
:102C0E00020900060005000D000B0A0152002C20DF
:102C1E0047002C204200464E00666E00464E3A207B
:102C2E000054007400440049006900436F6D6D61EB
:102C3E006E64203A20002D006E6F742070726F63E8
:102C4E00657373656400532C00422C00564D44503E
:102C5E00565F317C315F564D4450560D0A0031336C
:102C6E0000300000000000CE07170E3A08AD072016
:102C7E00085208564D4450435F005F564D44504332
:102C8E000D0A004572726F723A20417474656D7050
:102C9E007420746F20736574206120726561642DD9
:102CAE006F6E6C79207661726961626C65206F72ED
:102CBE0020646174612074797065206E6F74207366
:102CCE007570706F727465640D0A00000000009BD1
:102CDE000C170E1D0C360C280C790C6E616E0069EB
:0A2CEE006E66006F7666002E00008F
:00000001FF
